{
  "_format": "hh-sol-artifact-1",
  "contractName": "Calend3",
  "sourceName": "contracts/Calend3.sol",
  "abi": [
    {
      "inputs": [],
      "stateMutability": "nonpayable",
      "type": "constructor"
    },
    {
      "inputs": [
        {
          "internalType": "string",
          "name": "title",
          "type": "string"
        },
        {
          "internalType": "uint256",
          "name": "startTime",
          "type": "uint256"
        },
        {
          "internalType": "uint256",
          "name": "endTime",
          "type": "uint256"
        }
      ],
      "name": "createAppointment",
      "outputs": [],
      "stateMutability": "payable",
      "type": "function"
    },
    {
      "inputs": [],
      "name": "getAppointments",
      "outputs": [
        {
          "components": [
            {
              "internalType": "string",
              "name": "title",
              "type": "string"
            },
            {
              "internalType": "address",
              "name": "attendee",
              "type": "address"
            },
            {
              "internalType": "uint256",
              "name": "startTime",
              "type": "uint256"
            },
            {
              "internalType": "uint256",
              "name": "endTime",
              "type": "uint256"
            },
            {
              "internalType": "uint256",
              "name": "amountPaid",
              "type": "uint256"
            }
          ],
          "internalType": "struct Calend3.Appointment[]",
          "name": "",
          "type": "tuple[]"
        }
      ],
      "stateMutability": "view",
      "type": "function"
    },
    {
      "inputs": [],
      "name": "getRate",
      "outputs": [
        {
          "internalType": "uint256",
          "name": "",
          "type": "uint256"
        }
      ],
      "stateMutability": "view",
      "type": "function"
    },
    {
      "inputs": [],
      "name": "owner",
      "outputs": [
        {
          "internalType": "address payable",
          "name": "",
          "type": "address"
        }
      ],
      "stateMutability": "view",
      "type": "function"
    },
    {
      "inputs": [
        {
          "internalType": "uint256",
          "name": "_rate",
          "type": "uint256"
        }
      ],
      "name": "setRate",
      "outputs": [],
      "stateMutability": "nonpayable",
      "type": "function"
    }
  ],
  "bytecode": "0x608060405234801561001057600080fd5b5033600160006101000a81548173ffffffffffffffffffffffffffffffffffffffff021916908373ffffffffffffffffffffffffffffffffffffffff160217905550610e02806100616000396000f3fe60806040526004361061004a5760003560e01c806334fcf4371461004f57806359c35bdf14610078578063679aefce146100945780638da5cb5b146100bf57806396b80d08146100ea575b600080fd5b34801561005b57600080fd5b50610076600480360381019061007191906106fb565b610115565b005b610092600480360381019061008d9190610694565b6101af565b005b3480156100a057600080fd5b506100a96103e0565b6040516100b691906109d6565b60405180910390f35b3480156100cb57600080fd5b506100d46103e9565b6040516100e19190610939565b60405180910390f35b3480156100f657600080fd5b506100ff61040f565b60405161010c9190610954565b60405180910390f35b600160009054906101000a900473ffffffffffffffffffffffffffffffffffffffff1673ffffffffffffffffffffffffffffffffffffffff163373ffffffffffffffffffffffffffffffffffffffff16146101a5576040517f08c379a000000000000000000000000000000000000000000000000000000000815260040161019c906109b6565b60405180910390fd5b8060008190555050565b60006040518060a001604052808581526020013373ffffffffffffffffffffffffffffffffffffffff168152602001848152602001838152602001600054603c86866101fb9190610b43565b6102059190610ab8565b61020f9190610ae9565b8152509050806080015134101561025b576040517f08c379a000000000000000000000000000000000000000000000000000000000815260040161025290610976565b60405180910390fd5b6000600160009054906101000a900473ffffffffffffffffffffffffffffffffffffffff1673ffffffffffffffffffffffffffffffffffffffff16346040516102a390610924565b60006040518083038185875af1925050503d80600081146102e0576040519150601f19603f3d011682016040523d82523d6000602084013e6102e5565b606091505b5050905080610329576040517f08c379a000000000000000000000000000000000000000000000000000000000815260040161032090610996565b60405180910390fd5b60028290806001815401808255809150506001900390600052602060002090600502016000909190919091506000820151816000019080519060200190610371929190610574565b5060208201518160010160006101000a81548173ffffffffffffffffffffffffffffffffffffffff021916908373ffffffffffffffffffffffffffffffffffffffff16021790555060408201518160020155606082015181600301556080820151816004015550505050505050565b60008054905090565b600160009054906101000a900473ffffffffffffffffffffffffffffffffffffffff1681565b60606002805480602002602001604051908101604052809291908181526020016000905b8282101561056b57838290600052602060002090600502016040518060a001604052908160008201805461046690610c07565b80601f016020809104026020016040519081016040528092919081815260200182805461049290610c07565b80156104df5780601f106104b4576101008083540402835291602001916104df565b820191906000526020600020905b8154815290600101906020018083116104c257829003601f168201915b505050505081526020016001820160009054906101000a900473ffffffffffffffffffffffffffffffffffffffff1673ffffffffffffffffffffffffffffffffffffffff1673ffffffffffffffffffffffffffffffffffffffff168152602001600282015481526020016003820154815260200160048201548152505081526020019060010190610433565b50505050905090565b82805461058090610c07565b90600052602060002090601f0160209004810192826105a257600085556105e9565b82601f106105bb57805160ff19168380011785556105e9565b828001600101855582156105e9579182015b828111156105e85782518255916020019190600101906105cd565b5b5090506105f691906105fa565b5090565b5b808211156106135760008160009055506001016105fb565b5090565b600061062a61062584610a16565b6109f1565b90508281526020810184848401111561064257600080fd5b61064d848285610bc5565b509392505050565b600082601f83011261066657600080fd5b8135610676848260208601610617565b91505092915050565b60008135905061068e81610db5565b92915050565b6000806000606084860312156106a957600080fd5b600084013567ffffffffffffffff8111156106c357600080fd5b6106cf86828701610655565b93505060206106e08682870161067f565b92505060406106f18682870161067f565b9150509250925092565b60006020828403121561070d57600080fd5b600061071b8482850161067f565b91505092915050565b60006107308383610890565b905092915050565b61074181610b89565b82525050565b61075081610b77565b82525050565b600061076182610a57565b61076b8185610a7a565b93508360208202850161077d85610a47565b8060005b858110156107b9578484038952815161079a8582610724565b94506107a583610a6d565b925060208a01995050600181019050610781565b50829750879550505050505092915050565b60006107d682610a62565b6107e08185610a96565b93506107f0818560208601610bd4565b6107f981610d26565b840191505092915050565b6000610811601583610aa7565b915061081c82610d37565b602082019050919050565b6000610834601483610aa7565b915061083f82610d60565b602082019050919050565b6000610857600083610a8b565b915061086282610d89565b600082019050919050565b600061087a601f83610aa7565b915061088582610d8c565b602082019050919050565b600060a08301600083015184820360008601526108ad82826107cb565b91505060208301516108c26020860182610747565b5060408301516108d56040860182610906565b5060608301516108e86060860182610906565b5060808301516108fb6080860182610906565b508091505092915050565b61090f81610bbb565b82525050565b61091e81610bbb565b82525050565b600061092f8261084a565b9150819050919050565b600060208201905061094e6000830184610738565b92915050565b6000602082019050818103600083015261096e8184610756565b905092915050565b6000602082019050818103600083015261098f81610804565b9050919050565b600060208201905081810360008301526109af81610827565b9050919050565b600060208201905081810360008301526109cf8161086d565b9050919050565b60006020820190506109eb6000830184610915565b92915050565b60006109fb610a0c565b9050610a078282610c39565b919050565b6000604051905090565b600067ffffffffffffffff821115610a3157610a30610cf7565b5b610a3a82610d26565b9050602081019050919050565b6000819050602082019050919050565b600081519050919050565b600081519050919050565b6000602082019050919050565b600082825260208201905092915050565b600081905092915050565b600082825260208201905092915050565b600082825260208201905092915050565b6000610ac382610bbb565b9150610ace83610bbb565b925082610ade57610add610c99565b5b828204905092915050565b6000610af482610bbb565b9150610aff83610bbb565b9250817fffffffffffffffffffffffffffffffffffffffffffffffffffffffffffffffff0483118215151615610b3857610b37610c6a565b5b828202905092915050565b6000610b4e82610bbb565b9150610b5983610bbb565b925082821015610b6c57610b6b610c6a565b5b828203905092915050565b6000610b8282610b9b565b9050919050565b6000610b9482610b9b565b9050919050565b600073ffffffffffffffffffffffffffffffffffffffff82169050919050565b6000819050919050565b82818337600083830152505050565b60005b83811015610bf2578082015181840152602081019050610bd7565b83811115610c01576000848401525b50505050565b60006002820490506001821680610c1f57607f821691505b60208210811415610c3357610c32610cc8565b5b50919050565b610c4282610d26565b810181811067ffffffffffffffff82111715610c6157610c60610cf7565b5b80604052505050565b7f4e487b7100000000000000000000000000000000000000000000000000000000600052601160045260246000fd5b7f4e487b7100000000000000000000000000000000000000000000000000000000600052601260045260246000fd5b7f4e487b7100000000000000000000000000000000000000000000000000000000600052602260045260246000fd5b7f4e487b7100000000000000000000000000000000000000000000000000000000600052604160045260246000fd5b6000601f19601f8301169050919050565b7f57652072657175697265206d6f72652065746865720000000000000000000000600082015250565b7f4661696c656420746f2073656e64204574686572000000000000000000000000600082015250565b50565b7f4f6e6c7920746865206f776e65722063616e2073657420746865207261746500600082015250565b610dbe81610bbb565b8114610dc957600080fd5b5056fea26469706673582212205bbf3eb1f98ca2c2677236fb66d60c71e2b16f63cf486d26d77bc837529054f164736f6c63430008040033",
  "linkReferences": {},
  "deployedLinkReferences": {}
}